{
  "contractName": "BountyBadge",
  "abi": [
    {
      "inputs": [],
      "stateMutability": "nonpayable",
      "type": "constructor"
    },
    {
      "anonymous": false,
      "inputs": [
        {
          "indexed": true,
          "internalType": "address",
          "name": "owner",
          "type": "address"
        },
        {
          "indexed": true,
          "internalType": "address",
          "name": "spender",
          "type": "address"
        },
        {
          "indexed": false,
          "internalType": "uint256",
          "name": "value",
          "type": "uint256"
        }
      ],
      "name": "Approval",
      "type": "event"
    },
    {
      "anonymous": false,
      "inputs": [
        {
          "indexed": false,
          "internalType": "string",
          "name": "challengeId",
          "type": "string"
        },
        {
          "indexed": false,
          "internalType": "address",
          "name": "challengeOwner",
          "type": "address"
        },
        {
          "indexed": false,
          "internalType": "string",
          "name": "githubChallengeLink",
          "type": "string"
        },
        {
          "indexed": false,
          "internalType": "uint256",
          "name": "bountyAmount",
          "type": "uint256"
        },
        {
          "indexed": false,
          "internalType": "uint256",
          "name": "endTiming",
          "type": "uint256"
        }
      ],
      "name": "ChallengeAdded",
      "type": "event"
    },
    {
      "anonymous": false,
      "inputs": [
        {
          "indexed": false,
          "internalType": "string",
          "name": "challengeId",
          "type": "string"
        },
        {
          "indexed": false,
          "internalType": "address",
          "name": "challengeOwner",
          "type": "address"
        },
        {
          "indexed": false,
          "internalType": "address",
          "name": "challengeWinner",
          "type": "address"
        },
        {
          "indexed": false,
          "internalType": "string",
          "name": "githubSolutionLink",
          "type": "string"
        }
      ],
      "name": "ChallengeConcluded",
      "type": "event"
    },
    {
      "anonymous": false,
      "inputs": [
        {
          "indexed": false,
          "internalType": "string",
          "name": "challengeId",
          "type": "string"
        },
        {
          "indexed": false,
          "internalType": "address",
          "name": "challengeOwner",
          "type": "address"
        },
        {
          "indexed": false,
          "internalType": "bool",
          "name": "isAlive",
          "type": "bool"
        }
      ],
      "name": "ChallengeExpired",
      "type": "event"
    },
    {
      "anonymous": false,
      "inputs": [
        {
          "indexed": true,
          "internalType": "address",
          "name": "previousOwner",
          "type": "address"
        },
        {
          "indexed": true,
          "internalType": "address",
          "name": "newOwner",
          "type": "address"
        }
      ],
      "name": "OwnershipTransferred",
      "type": "event"
    },
    {
      "anonymous": false,
      "inputs": [
        {
          "indexed": true,
          "internalType": "address",
          "name": "from",
          "type": "address"
        },
        {
          "indexed": true,
          "internalType": "address",
          "name": "to",
          "type": "address"
        },
        {
          "indexed": false,
          "internalType": "uint256",
          "name": "value",
          "type": "uint256"
        }
      ],
      "name": "Transfer",
      "type": "event"
    },
    {
      "inputs": [
        {
          "internalType": "address",
          "name": "",
          "type": "address"
        }
      ],
      "name": "addressToChallengeCount",
      "outputs": [
        {
          "internalType": "uint256",
          "name": "",
          "type": "uint256"
        }
      ],
      "stateMutability": "view",
      "type": "function"
    },
    {
      "inputs": [
        {
          "internalType": "address",
          "name": "",
          "type": "address"
        },
        {
          "internalType": "uint256",
          "name": "",
          "type": "uint256"
        }
      ],
      "name": "addressToChallenges",
      "outputs": [
        {
          "internalType": "string",
          "name": "challengeId",
          "type": "string"
        },
        {
          "internalType": "uint256",
          "name": "challengecount",
          "type": "uint256"
        },
        {
          "internalType": "string",
          "name": "githubChallengeLink",
          "type": "string"
        },
        {
          "internalType": "uint256",
          "name": "endTiming",
          "type": "uint256"
        },
        {
          "internalType": "uint256",
          "name": "bountyAmount",
          "type": "uint256"
        },
        {
          "internalType": "address",
          "name": "challengeOwner",
          "type": "address"
        },
        {
          "internalType": "address",
          "name": "challengeWinner",
          "type": "address"
        },
        {
          "internalType": "string",
          "name": "githubSolutionLink",
          "type": "string"
        },
        {
          "internalType": "bool",
          "name": "rewarded",
          "type": "bool"
        },
        {
          "internalType": "bool",
          "name": "isAlive",
          "type": "bool"
        }
      ],
      "stateMutability": "view",
      "type": "function"
    },
    {
      "inputs": [
        {
          "internalType": "address",
          "name": "owner",
          "type": "address"
        },
        {
          "internalType": "address",
          "name": "spender",
          "type": "address"
        }
      ],
      "name": "allowance",
      "outputs": [
        {
          "internalType": "uint256",
          "name": "",
          "type": "uint256"
        }
      ],
      "stateMutability": "view",
      "type": "function"
    },
    {
      "inputs": [
        {
          "internalType": "address",
          "name": "spender",
          "type": "address"
        },
        {
          "internalType": "uint256",
          "name": "amount",
          "type": "uint256"
        }
      ],
      "name": "approve",
      "outputs": [
        {
          "internalType": "bool",
          "name": "",
          "type": "bool"
        }
      ],
      "stateMutability": "nonpayable",
      "type": "function"
    },
    {
      "inputs": [
        {
          "internalType": "address",
          "name": "account",
          "type": "address"
        }
      ],
      "name": "balanceOf",
      "outputs": [
        {
          "internalType": "uint256",
          "name": "",
          "type": "uint256"
        }
      ],
      "stateMutability": "view",
      "type": "function"
    },
    {
      "inputs": [
        {
          "internalType": "uint256",
          "name": "amount",
          "type": "uint256"
        }
      ],
      "name": "burn",
      "outputs": [],
      "stateMutability": "nonpayable",
      "type": "function"
    },
    {
      "inputs": [],
      "name": "decimals",
      "outputs": [
        {
          "internalType": "uint8",
          "name": "",
          "type": "uint8"
        }
      ],
      "stateMutability": "view",
      "type": "function"
    },
    {
      "inputs": [],
      "name": "name",
      "outputs": [
        {
          "internalType": "string",
          "name": "",
          "type": "string"
        }
      ],
      "stateMutability": "view",
      "type": "function"
    },
    {
      "inputs": [],
      "name": "owner",
      "outputs": [
        {
          "internalType": "address",
          "name": "",
          "type": "address"
        }
      ],
      "stateMutability": "view",
      "type": "function"
    },
    {
      "inputs": [],
      "name": "symbol",
      "outputs": [
        {
          "internalType": "string",
          "name": "",
          "type": "string"
        }
      ],
      "stateMutability": "view",
      "type": "function"
    },
    {
      "inputs": [],
      "name": "totalSupply",
      "outputs": [
        {
          "internalType": "uint256",
          "name": "",
          "type": "uint256"
        }
      ],
      "stateMutability": "view",
      "type": "function"
    },
    {
      "inputs": [
        {
          "internalType": "address",
          "name": "recipient",
          "type": "address"
        },
        {
          "internalType": "uint256",
          "name": "amount",
          "type": "uint256"
        }
      ],
      "name": "transfer",
      "outputs": [
        {
          "internalType": "bool",
          "name": "",
          "type": "bool"
        }
      ],
      "stateMutability": "nonpayable",
      "type": "function"
    },
    {
      "inputs": [
        {
          "internalType": "address",
          "name": "sender",
          "type": "address"
        },
        {
          "internalType": "address",
          "name": "recipient",
          "type": "address"
        },
        {
          "internalType": "uint256",
          "name": "amount",
          "type": "uint256"
        }
      ],
      "name": "transferFrom",
      "outputs": [
        {
          "internalType": "bool",
          "name": "",
          "type": "bool"
        }
      ],
      "stateMutability": "nonpayable",
      "type": "function"
    },
    {
      "inputs": [
        {
          "internalType": "address",
          "name": "newOwner",
          "type": "address"
        }
      ],
      "name": "transferOwnership",
      "outputs": [],
      "stateMutability": "nonpayable",
      "type": "function"
    },
    {
      "inputs": [
        {
          "internalType": "address",
          "name": "to",
          "type": "address"
        },
        {
          "internalType": "uint256",
          "name": "amount",
          "type": "uint256"
        }
      ],
      "name": "mint",
      "outputs": [],
      "stateMutability": "nonpayable",
      "type": "function"
    },
    {
      "inputs": [
        {
          "internalType": "string",
          "name": "githubChallengeLink",
          "type": "string"
        },
        {
          "internalType": "uint256",
          "name": "bountyAmount",
          "type": "uint256"
        },
        {
          "internalType": "uint256",
          "name": "endTiming",
          "type": "uint256"
        }
      ],
      "name": "Addbounty",
      "outputs": [
        {
          "internalType": "bool",
          "name": "",
          "type": "bool"
        }
      ],
      "stateMutability": "nonpayable",
      "type": "function"
    },
    {
      "inputs": [
        {
          "internalType": "uint256",
          "name": "challengeCount",
          "type": "uint256"
        },
        {
          "internalType": "string",
          "name": "githubSolutionLink",
          "type": "string"
        },
        {
          "internalType": "address",
          "name": "winner",
          "type": "address"
        }
      ],
      "name": "ConcludeBounty",
      "outputs": [
        {
          "internalType": "bool",
          "name": "",
          "type": "bool"
        }
      ],
      "stateMutability": "nonpayable",
      "type": "function"
    },
    {
      "inputs": [
        {
          "internalType": "uint256",
          "name": "challengeCount",
          "type": "uint256"
        }
      ],
      "name": "expiredBounty",
      "outputs": [],
      "stateMutability": "nonpayable",
      "type": "function"
    }
  ],
  "bytecode": "0x60806040523480156200001157600080fd5b506040518060400160405280600681526020017f426f756e747900000000000000000000000000000000000000000000000000008152506040518060400160405280600381526020017f425459000000000000000000000000000000000000000000000000000000000081525081600390805190602001906200009692919062000371565b508060049080519060200190620000af92919062000371565b505050620000d2620000c66200011760201b60201c565b6200011f60201b60201c565b6200011133620000e7620001e560201b60201c565b600a620000f59190620005bb565b629896806200010591906200060c565b620001ee60201b60201c565b620007e0565b600033905090565b6000600560009054906101000a900473ffffffffffffffffffffffffffffffffffffffff16905081600560006101000a81548173ffffffffffffffffffffffffffffffffffffffff021916908373ffffffffffffffffffffffffffffffffffffffff1602179055508173ffffffffffffffffffffffffffffffffffffffff168173ffffffffffffffffffffffffffffffffffffffff167f8be0079c531659141344cd1fd0a4f28419497f9722a3daafe3b4186f6b6457e060405160405180910390a35050565b60006012905090565b600073ffffffffffffffffffffffffffffffffffffffff168273ffffffffffffffffffffffffffffffffffffffff16141562000261576040517f08c379a00000000000000000000000000000000000000000000000000000000081526004016200025890620006ce565b60405180910390fd5b62000275600083836200036760201b60201c565b8060026000828254620002899190620006f0565b92505081905550806000808473ffffffffffffffffffffffffffffffffffffffff1673ffffffffffffffffffffffffffffffffffffffff1681526020019081526020016000206000828254620002e09190620006f0565b925050819055508173ffffffffffffffffffffffffffffffffffffffff16600073ffffffffffffffffffffffffffffffffffffffff167fddf252ad1be2c89b69c2b068fc378daa952ba7f163c4a11628f55a4df523b3ef836040516200034791906200075e565b60405180910390a362000363600083836200036c60201b60201c565b5050565b505050565b505050565b8280546200037f90620007aa565b90600052602060002090601f016020900481019282620003a35760008555620003ef565b82601f10620003be57805160ff1916838001178555620003ef565b82800160010185558215620003ef579182015b82811115620003ee578251825591602001919060010190620003d1565b5b509050620003fe919062000402565b5090565b5b808211156200041d57600081600090555060010162000403565b5090565b7f4e487b7100000000000000000000000000000000000000000000000000000000600052601160045260246000fd5b60008160011c9050919050565b6000808291508390505b6001851115620004af5780860481111562000487576200048662000421565b5b6001851615620004975780820291505b8081029050620004a78562000450565b945062000467565b94509492505050565b600082620004ca57600190506200059d565b81620004da57600090506200059d565b8160018114620004f35760028114620004fe5762000534565b60019150506200059d565b60ff84111562000513576200051262000421565b5b8360020a9150848211156200052d576200052c62000421565b5b506200059d565b5060208310610133831016604e8410600b84101617156200056e5782820a90508381111562000568576200056762000421565b5b6200059d565b6200057d84848460016200045d565b9250905081840481111562000597576200059662000421565b5b81810290505b9392505050565b6000819050919050565b600060ff82169050919050565b6000620005c882620005a4565b9150620005d583620005ae565b9250620006047fffffffffffffffffffffffffffffffffffffffffffffffffffffffffffffffff8484620004b8565b905092915050565b60006200061982620005a4565b91506200062683620005a4565b9250817fffffffffffffffffffffffffffffffffffffffffffffffffffffffffffffffff048311821515161562000662576200066162000421565b5b828202905092915050565b600082825260208201905092915050565b7f45524332303a206d696e7420746f20746865207a65726f206164647265737300600082015250565b6000620006b6601f836200066d565b9150620006c3826200067e565b602082019050919050565b60006020820190508181036000830152620006e981620006a7565b9050919050565b6000620006fd82620005a4565b91506200070a83620005a4565b9250827fffffffffffffffffffffffffffffffffffffffffffffffffffffffffffffffff0382111562000742576200074162000421565b5b828201905092915050565b6200075881620005a4565b82525050565b60006020820190506200077560008301846200074d565b92915050565b7f4e487b7100000000000000000000000000000000000000000000000000000000600052602260045260246000fd5b60006002820490506001821680620007c357607f821691505b60208210811415620007da57620007d96200077b565b5b50919050565b613e1980620007f06000396000f3fe608060405234801561001057600080fd5b50600436106101165760003560e01c806370a08231116100a257806395d89b411161007157806395d89b4114610310578063a9059cbb1461032e578063b19a84001461035e578063dd62ed3e1461038e578063f2fde38b146103be57610116565b806370a08231146102625780637394e08d146102925780637f755a71146102c25780638da5cb5b146102f257610116565b8063313ce567116100e9578063313ce567146101b75780633ec0067c146101d557806340c10f19146101f157806342966c681461020d5780636e475a981461022957610116565b806306fdde031461011b578063095ea7b31461013957806318160ddd1461016957806323b872dd14610187575b600080fd5b6101236103da565b60405161013091906128e1565b60405180910390f35b610153600480360381019061014e91906129ab565b61046c565b6040516101609190612a06565b60405180910390f35b61017161048a565b60405161017e9190612a30565b60405180910390f35b6101a1600480360381019061019c9190612a4b565b610494565b6040516101ae9190612a06565b60405180910390f35b6101bf61058c565b6040516101cc9190612aba565b60405180910390f35b6101ef60048036038101906101ea9190612ad5565b610595565b005b61020b600480360381019061020691906129ab565b610adb565b005b61022760048036038101906102229190612ad5565b610b65565b005b610243600480360381019061023e91906129ab565b610b79565b6040516102599a99989796959493929190612b11565b60405180910390f35b61027c60048036038101906102779190612bc2565b610dcc565b6040516102899190612a30565b60405180910390f35b6102ac60048036038101906102a79190612d24565b610e14565b6040516102b99190612a06565b60405180910390f35b6102dc60048036038101906102d79190612d93565b6113fc565b6040516102e99190612a06565b60405180910390f35b6102fa611855565b6040516103079190612e02565b60405180910390f35b61031861187f565b60405161032591906128e1565b60405180910390f35b610348600480360381019061034391906129ab565b611911565b6040516103559190612a06565b60405180910390f35b61037860048036038101906103739190612bc2565b61192f565b6040516103859190612a30565b60405180910390f35b6103a860048036038101906103a39190612e1d565b611947565b6040516103b59190612a30565b60405180910390f35b6103d860048036038101906103d39190612bc2565b6119ce565b005b6060600380546103e990612e8c565b80601f016020809104026020016040519081016040528092919081815260200182805461041590612e8c565b80156104625780601f1061043757610100808354040283529160200191610462565b820191906000526020600020905b81548152906001019060200180831161044557829003601f168201915b5050505050905090565b6000610480610479611ac6565b8484611ace565b6001905092915050565b6000600254905090565b60006104a1848484611c99565b6000600160008673ffffffffffffffffffffffffffffffffffffffff1673ffffffffffffffffffffffffffffffffffffffff16815260200190815260200160002060006104ec611ac6565b73ffffffffffffffffffffffffffffffffffffffff1673ffffffffffffffffffffffffffffffffffffffff1681526020019081526020016000205490508281101561056c576040517f08c379a000000000000000000000000000000000000000000000000000000000815260040161056390612f30565b60405180910390fd5b61058085610578611ac6565b858403611ace565b60019150509392505050565b60006012905090565b3373ffffffffffffffffffffffffffffffffffffffff16600760003373ffffffffffffffffffffffffffffffffffffffff1673ffffffffffffffffffffffffffffffffffffffff168152602001908152602001600020600083815260200190815260200160002060050160009054906101000a900473ffffffffffffffffffffffffffffffffffffffff1673ffffffffffffffffffffffffffffffffffffffff1614610676576040517f08c379a000000000000000000000000000000000000000000000000000000000815260040161066d90612fe8565b60405180910390fd5b42600760003373ffffffffffffffffffffffffffffffffffffffff1673ffffffffffffffffffffffffffffffffffffffff1681526020019081526020016000206000838152602001908152602001600020600301541061070b576040517f08c379a00000000000000000000000000000000000000000000000000000000081526004016107029061307a565b60405180910390fd5b6000600760003373ffffffffffffffffffffffffffffffffffffffff1673ffffffffffffffffffffffffffffffffffffffff168152602001908152602001600020600083815260200190815260200160002060080160016101000a81548160ff0219169083151502179055506000600760003373ffffffffffffffffffffffffffffffffffffffff1673ffffffffffffffffffffffffffffffffffffffff168152602001908152602001600020600083815260200190815260200160002060060160006101000a81548173ffffffffffffffffffffffffffffffffffffffff021916908373ffffffffffffffffffffffffffffffffffffffff1602179055506040518060400160405280601181526020017f4368616c6c656e67652045787069726564000000000000000000000000000000815250600760003373ffffffffffffffffffffffffffffffffffffffff1673ffffffffffffffffffffffffffffffffffffffff168152602001908152602001600020600083815260200190815260200160002060070190805190602001906108a69291906127a5565b506001600760003373ffffffffffffffffffffffffffffffffffffffff1673ffffffffffffffffffffffffffffffffffffffff168152602001908152602001600020600083815260200190815260200160002060080160006101000a81548160ff0219169083151502179055506000600760003373ffffffffffffffffffffffffffffffffffffffff1673ffffffffffffffffffffffffffffffffffffffff16815260200190815260200160002060008381526020019081526020016000206004015490503073ffffffffffffffffffffffffffffffffffffffff1663a9059cbb33836040518363ffffffff1660e01b81526004016109a692919061309a565b6020604051808303816000875af11580156109c5573d6000803e3d6000fd5b505050506040513d601f19601f820116820180604052508101906109e991906130ef565b507fea1af5a2cb11744bbc13415944e408479b75ed84db4b03d36e3f2c73a2e9a369600760003373ffffffffffffffffffffffffffffffffffffffff1673ffffffffffffffffffffffffffffffffffffffff168152602001908152602001600020600084815260200190815260200160002060000133600760003373ffffffffffffffffffffffffffffffffffffffff1673ffffffffffffffffffffffffffffffffffffffff168152602001908152602001600020600086815260200190815260200160002060080160019054906101000a900460ff16604051610acf939291906131b1565b60405180910390a15050565b610ae3611ac6565b73ffffffffffffffffffffffffffffffffffffffff16610b01611855565b73ffffffffffffffffffffffffffffffffffffffff1614610b57576040517f08c379a0000000000000000000000000000000000000000000000000000000008152600401610b4e9061323b565b60405180910390fd5b610b618282611f1a565b5050565b610b76610b70611ac6565b8261207a565b50565b600760205281600052604060002060205280600052604060002060009150915050806000018054610ba990612e8c565b80601f0160208091040260200160405190810160405280929190818152602001828054610bd590612e8c565b8015610c225780601f10610bf757610100808354040283529160200191610c22565b820191906000526020600020905b815481529060010190602001808311610c0557829003601f168201915b505050505090806001015490806002018054610c3d90612e8c565b80601f0160208091040260200160405190810160405280929190818152602001828054610c6990612e8c565b8015610cb65780601f10610c8b57610100808354040283529160200191610cb6565b820191906000526020600020905b815481529060010190602001808311610c9957829003601f168201915b5050505050908060030154908060040154908060050160009054906101000a900473ffffffffffffffffffffffffffffffffffffffff16908060060160009054906101000a900473ffffffffffffffffffffffffffffffffffffffff1690806007018054610d2390612e8c565b80601f0160208091040260200160405190810160405280929190818152602001828054610d4f90612e8c565b8015610d9c5780601f10610d7157610100808354040283529160200191610d9c565b820191906000526020600020905b815481529060010190602001808311610d7f57829003601f168201915b5050505050908060080160009054906101000a900460ff16908060080160019054906101000a900460ff1690508a565b60008060008373ffffffffffffffffffffffffffffffffffffffff1673ffffffffffffffffffffffffffffffffffffffff168152602001908152602001600020549050919050565b60003373ffffffffffffffffffffffffffffffffffffffff16600760003373ffffffffffffffffffffffffffffffffffffffff1673ffffffffffffffffffffffffffffffffffffffff168152602001908152602001600020600086815260200190815260200160002060050160009054906101000a900473ffffffffffffffffffffffffffffffffffffffff1673ffffffffffffffffffffffffffffffffffffffff1614610ef7576040517f08c379a0000000000000000000000000000000000000000000000000000000008152600401610eee90612fe8565b60405180910390fd5b60011515600760003373ffffffffffffffffffffffffffffffffffffffff1673ffffffffffffffffffffffffffffffffffffffff168152602001908152602001600020600086815260200190815260200160002060080160019054906101000a900460ff16151514610f9e576040517f08c379a0000000000000000000000000000000000000000000000000000000008152600401610f95906132cd565b60405180910390fd5b60001515600760003373ffffffffffffffffffffffffffffffffffffffff1673ffffffffffffffffffffffffffffffffffffffff168152602001908152602001600020600086815260200190815260200160002060080160009054906101000a900460ff16151514611045576040517f08c379a000000000000000000000000000000000000000000000000000000000815260040161103c90613339565b60405180910390fd5b6000600760003373ffffffffffffffffffffffffffffffffffffffff1673ffffffffffffffffffffffffffffffffffffffff168152602001908152602001600020600086815260200190815260200160002060080160016101000a81548160ff02191690831515021790555081600760003373ffffffffffffffffffffffffffffffffffffffff1673ffffffffffffffffffffffffffffffffffffffff168152602001908152602001600020600086815260200190815260200160002060060160006101000a81548173ffffffffffffffffffffffffffffffffffffffff021916908373ffffffffffffffffffffffffffffffffffffffff16021790555082600760003373ffffffffffffffffffffffffffffffffffffffff1673ffffffffffffffffffffffffffffffffffffffff168152602001908152602001600020600086815260200190815260200160002060070190805190602001906111aa9291906127a5565b506001600760003373ffffffffffffffffffffffffffffffffffffffff1673ffffffffffffffffffffffffffffffffffffffff168152602001908152602001600020600086815260200190815260200160002060080160006101000a81548160ff0219169083151502179055506000600760003373ffffffffffffffffffffffffffffffffffffffff1673ffffffffffffffffffffffffffffffffffffffff16815260200190815260200160002060008681526020019081526020016000206004015490503073ffffffffffffffffffffffffffffffffffffffff1663a9059cbb84836040518363ffffffff1660e01b81526004016112aa92919061309a565b6020604051808303816000875af11580156112c9573d6000803e3d6000fd5b505050506040513d601f19601f820116820180604052508101906112ed91906130ef565b507f14411f08bc6ca05dd451ac3a78fa5d2d49adf22cd76e85e9b3bcbcaf30b78628600760003373ffffffffffffffffffffffffffffffffffffffff1673ffffffffffffffffffffffffffffffffffffffff1681526020019081526020016000206000878152602001908152602001600020600001600760003373ffffffffffffffffffffffffffffffffffffffff1673ffffffffffffffffffffffffffffffffffffffff168152602001908152602001600020600088815260200190815260200160002060050160009054906101000a900473ffffffffffffffffffffffffffffffffffffffff1685876040516113e89493929190613359565b60405180910390a160019150509392505050565b6000808311611440576040517f08c379a0000000000000000000000000000000000000000000000000000000008152600401611437906133f8565b60405180910390fd5b610e104261144e9190613447565b821161148f576040517f08c379a00000000000000000000000000000000000000000000000000000000081526004016114869061350f565b60405180910390fd5b6001600660003373ffffffffffffffffffffffffffffffffffffffff1673ffffffffffffffffffffffffffffffffffffffff16815260200190815260200160002060008282546114df9190613447565b925050819055506000600660003373ffffffffffffffffffffffffffffffffffffffff1673ffffffffffffffffffffffffffffffffffffffff168152602001908152602001600020549050600061153533612251565b61153e8361254c565b60405160200161154f9291906135b7565b6040516020818303038152906040529050604051806101400160405280828152602001600660003373ffffffffffffffffffffffffffffffffffffffff1673ffffffffffffffffffffffffffffffffffffffff1681526020019081526020016000205481526020018781526020018581526020018681526020013373ffffffffffffffffffffffffffffffffffffffff168152602001600073ffffffffffffffffffffffffffffffffffffffff16815260200160405180602001604052806000815250815260200160001515815260200160011515815250600760003373ffffffffffffffffffffffffffffffffffffffff1673ffffffffffffffffffffffffffffffffffffffff1681526020019081526020016000206000600660003373ffffffffffffffffffffffffffffffffffffffff1673ffffffffffffffffffffffffffffffffffffffff16815260200190815260200160002054815260200190815260200160002060008201518160000190805190602001906116d29291906127a5565b506020820151816001015560408201518160020190805190602001906116f99291906127a5565b50606082015181600301556080820151816004015560a08201518160050160006101000a81548173ffffffffffffffffffffffffffffffffffffffff021916908373ffffffffffffffffffffffffffffffffffffffff16021790555060c08201518160060160006101000a81548173ffffffffffffffffffffffffffffffffffffffff021916908373ffffffffffffffffffffffffffffffffffffffff16021790555060e08201518160070190805190602001906117b89291906127a5565b506101008201518160080160006101000a81548160ff0219169083151502179055506101208201518160080160016101000a81548160ff0219169083151502179055509050506118083086611911565b507f812e3dffe293b874e53a5a753ceb5fb187bd8b184dad6b891cf976a0ab08030881338888886040516118409594939291906135e6565b60405180910390a16001925050509392505050565b6000600560009054906101000a900473ffffffffffffffffffffffffffffffffffffffff16905090565b60606004805461188e90612e8c565b80601f01602080910402602001604051908101604052809291908181526020018280546118ba90612e8c565b80156119075780601f106118dc57610100808354040283529160200191611907565b820191906000526020600020905b8154815290600101906020018083116118ea57829003601f168201915b5050505050905090565b600061192561191e611ac6565b8484611c99565b6001905092915050565b60066020528060005260406000206000915090505481565b6000600160008473ffffffffffffffffffffffffffffffffffffffff1673ffffffffffffffffffffffffffffffffffffffff16815260200190815260200160002060008373ffffffffffffffffffffffffffffffffffffffff1673ffffffffffffffffffffffffffffffffffffffff16815260200190815260200160002054905092915050565b6119d6611ac6565b73ffffffffffffffffffffffffffffffffffffffff166119f4611855565b73ffffffffffffffffffffffffffffffffffffffff1614611a4a576040517f08c379a0000000000000000000000000000000000000000000000000000000008152600401611a419061323b565b60405180910390fd5b600073ffffffffffffffffffffffffffffffffffffffff168173ffffffffffffffffffffffffffffffffffffffff161415611aba576040517f08c379a0000000000000000000000000000000000000000000000000000000008152600401611ab1906136b9565b60405180910390fd5b611ac3816126d5565b50565b600033905090565b600073ffffffffffffffffffffffffffffffffffffffff168373ffffffffffffffffffffffffffffffffffffffff161415611b3e576040517f08c379a0000000000000000000000000000000000000000000000000000000008152600401611b359061374b565b60405180910390fd5b600073ffffffffffffffffffffffffffffffffffffffff168273ffffffffffffffffffffffffffffffffffffffff161415611bae576040517f08c379a0000000000000000000000000000000000000000000000000000000008152600401611ba5906137dd565b60405180910390fd5b80600160008573ffffffffffffffffffffffffffffffffffffffff1673ffffffffffffffffffffffffffffffffffffffff16815260200190815260200160002060008473ffffffffffffffffffffffffffffffffffffffff1673ffffffffffffffffffffffffffffffffffffffff168152602001908152602001600020819055508173ffffffffffffffffffffffffffffffffffffffff168373ffffffffffffffffffffffffffffffffffffffff167f8c5be1e5ebec7d5bd14f71427d1e84f3dd0314c0f7b2291e5b200ac8c7c3b92583604051611c8c9190612a30565b60405180910390a3505050565b600073ffffffffffffffffffffffffffffffffffffffff168373ffffffffffffffffffffffffffffffffffffffff161415611d09576040517f08c379a0000000000000000000000000000000000000000000000000000000008152600401611d009061386f565b60405180910390fd5b600073ffffffffffffffffffffffffffffffffffffffff168273ffffffffffffffffffffffffffffffffffffffff161415611d79576040517f08c379a0000000000000000000000000000000000000000000000000000000008152600401611d7090613901565b60405180910390fd5b611d8483838361279b565b60008060008573ffffffffffffffffffffffffffffffffffffffff1673ffffffffffffffffffffffffffffffffffffffff16815260200190815260200160002054905081811015611e0a576040517f08c379a0000000000000000000000000000000000000000000000000000000008152600401611e0190613993565b60405180910390fd5b8181036000808673ffffffffffffffffffffffffffffffffffffffff1673ffffffffffffffffffffffffffffffffffffffff16815260200190815260200160002081905550816000808573ffffffffffffffffffffffffffffffffffffffff1673ffffffffffffffffffffffffffffffffffffffff1681526020019081526020016000206000828254611e9d9190613447565b925050819055508273ffffffffffffffffffffffffffffffffffffffff168473ffffffffffffffffffffffffffffffffffffffff167fddf252ad1be2c89b69c2b068fc378daa952ba7f163c4a11628f55a4df523b3ef84604051611f019190612a30565b60405180910390a3611f148484846127a0565b50505050565b600073ffffffffffffffffffffffffffffffffffffffff168273ffffffffffffffffffffffffffffffffffffffff161415611f8a576040517f08c379a0000000000000000000000000000000000000000000000000000000008152600401611f81906139ff565b60405180910390fd5b611f966000838361279b565b8060026000828254611fa89190613447565b92505081905550806000808473ffffffffffffffffffffffffffffffffffffffff1673ffffffffffffffffffffffffffffffffffffffff1681526020019081526020016000206000828254611ffd9190613447565b925050819055508173ffffffffffffffffffffffffffffffffffffffff16600073ffffffffffffffffffffffffffffffffffffffff167fddf252ad1be2c89b69c2b068fc378daa952ba7f163c4a11628f55a4df523b3ef836040516120629190612a30565b60405180910390a3612076600083836127a0565b5050565b600073ffffffffffffffffffffffffffffffffffffffff168273ffffffffffffffffffffffffffffffffffffffff1614156120ea576040517f08c379a00000000000000000000000000000000000000000000000000000000081526004016120e190613a91565b60405180910390fd5b6120f68260008361279b565b60008060008473ffffffffffffffffffffffffffffffffffffffff1673ffffffffffffffffffffffffffffffffffffffff1681526020019081526020016000205490508181101561217c576040517f08c379a000000000000000000000000000000000000000000000000000000000815260040161217390613b23565b60405180910390fd5b8181036000808573ffffffffffffffffffffffffffffffffffffffff1673ffffffffffffffffffffffffffffffffffffffff1681526020019081526020016000208190555081600260008282546121d39190613b43565b92505081905550600073ffffffffffffffffffffffffffffffffffffffff168373ffffffffffffffffffffffffffffffffffffffff167fddf252ad1be2c89b69c2b068fc378daa952ba7f163c4a11628f55a4df523b3ef846040516122389190612a30565b60405180910390a361224c836000846127a0565b505050565b60606000826040516020016122669190613bbf565b60405160208183030381529060405290506000602a67ffffffffffffffff81111561229457612293612bf9565b5b6040519080825280601f01601f1916602001820160405280156122c65781602001600182028036833780820191505090505b5090507f3000000000000000000000000000000000000000000000000000000000000000816000815181106122fe576122fd613bda565b5b60200101907effffffffffffffffffffffffffffffffffffffffffffffffffffffffffffff1916908160001a9053507f78000000000000000000000000000000000000000000000000000000000000008160018151811061236257612361613bda565b5b60200101907effffffffffffffffffffffffffffffffffffffffffffffffffffffffffffff1916908160001a90535060005b601481101561254157600060108483815181106123b4576123b3613bda565b5b602001015160f81c60f81b60f81c6123cc9190613c38565b905060008160106123dd9190613c69565b8584815181106123f0576123ef613bda565b5b602001015160f81c60f81b60f81c6124089190613ca4565b90506000600a8360ff161061242c576057836124249190613cd8565b60f81b61243d565b6030836124399190613cd8565b60f81b5b90506000600a8360ff1610612461576057836124599190613cd8565b60f81b612472565b60308361246e9190613cd8565b60f81b5b9050808660038760026124859190613d0f565b61248f9190613447565b815181106124a05761249f613bda565b5b60200101907effffffffffffffffffffffffffffffffffffffffffffffffffffffffffffff1916908160001a905350818660028760026124e09190613d0f565b6124ea9190613447565b815181106124fb576124fa613bda565b5b60200101907effffffffffffffffffffffffffffffffffffffffffffffffffffffffffffff1916908160001a90535050505050808061253990613d69565b915050612394565b508092505050919050565b60606000821415612594576040518060400160405280600181526020017f300000000000000000000000000000000000000000000000000000000000000081525090506126d0565b600082905060005b600082146125c65780806125af90613d69565b915050600a826125bf9190613db2565b915061259c565b60008167ffffffffffffffff8111156125e2576125e1612bf9565b5b6040519080825280601f01601f1916602001820160405280156126145781602001600182028036833780820191505090505b50905060008290505b600086146126c8576001816126329190613b43565b90506000600a80886126449190613db2565b61264e9190613d0f565b876126599190613b43565b60306126659190613cd8565b905060008160f81b90508084848151811061268357612682613bda565b5b60200101907effffffffffffffffffffffffffffffffffffffffffffffffffffffffffffff1916908160001a905350600a886126bf9190613db2565b9750505061261d565b819450505050505b919050565b6000600560009054906101000a900473ffffffffffffffffffffffffffffffffffffffff16905081600560006101000a81548173ffffffffffffffffffffffffffffffffffffffff021916908373ffffffffffffffffffffffffffffffffffffffff1602179055508173ffffffffffffffffffffffffffffffffffffffff168173ffffffffffffffffffffffffffffffffffffffff167f8be0079c531659141344cd1fd0a4f28419497f9722a3daafe3b4186f6b6457e060405160405180910390a35050565b505050565b505050565b8280546127b190612e8c565b90600052602060002090601f0160209004810192826127d3576000855561281a565b82601f106127ec57805160ff191683800117855561281a565b8280016001018555821561281a579182015b828111156128195782518255916020019190600101906127fe565b5b509050612827919061282b565b5090565b5b8082111561284457600081600090555060010161282c565b5090565b600081519050919050565b600082825260208201905092915050565b60005b83811015612882578082015181840152602081019050612867565b83811115612891576000848401525b50505050565b6000601f19601f8301169050919050565b60006128b382612848565b6128bd8185612853565b93506128cd818560208601612864565b6128d681612897565b840191505092915050565b600060208201905081810360008301526128fb81846128a8565b905092915050565b6000604051905090565b600080fd5b600080fd5b600073ffffffffffffffffffffffffffffffffffffffff82169050919050565b600061294282612917565b9050919050565b61295281612937565b811461295d57600080fd5b50565b60008135905061296f81612949565b92915050565b6000819050919050565b61298881612975565b811461299357600080fd5b50565b6000813590506129a58161297f565b92915050565b600080604083850312156129c2576129c161290d565b5b60006129d085828601612960565b92505060206129e185828601612996565b9150509250929050565b60008115159050919050565b612a00816129eb565b82525050565b6000602082019050612a1b60008301846129f7565b92915050565b612a2a81612975565b82525050565b6000602082019050612a456000830184612a21565b92915050565b600080600060608486031215612a6457612a6361290d565b5b6000612a7286828701612960565b9350506020612a8386828701612960565b9250506040612a9486828701612996565b9150509250925092565b600060ff82169050919050565b612ab481612a9e565b82525050565b6000602082019050612acf6000830184612aab565b92915050565b600060208284031215612aeb57612aea61290d565b5b6000612af984828501612996565b91505092915050565b612b0b81612937565b82525050565b6000610140820190508181036000830152612b2c818d6128a8565b9050612b3b602083018c612a21565b8181036040830152612b4d818b6128a8565b9050612b5c606083018a612a21565b612b696080830189612a21565b612b7660a0830188612b02565b612b8360c0830187612b02565b81810360e0830152612b9581866128a8565b9050612ba56101008301856129f7565b612bb36101208301846129f7565b9b9a5050505050505050505050565b600060208284031215612bd857612bd761290d565b5b6000612be684828501612960565b91505092915050565b600080fd5b600080fd5b7f4e487b7100000000000000000000000000000000000000000000000000000000600052604160045260246000fd5b612c3182612897565b810181811067ffffffffffffffff82111715612c5057612c4f612bf9565b5b80604052505050565b6000612c63612903565b9050612c6f8282612c28565b919050565b600067ffffffffffffffff821115612c8f57612c8e612bf9565b5b612c9882612897565b9050602081019050919050565b82818337600083830152505050565b6000612cc7612cc284612c74565b612c59565b905082815260208101848484011115612ce357612ce2612bf4565b5b612cee848285612ca5565b509392505050565b600082601f830112612d0b57612d0a612bef565b5b8135612d1b848260208601612cb4565b91505092915050565b600080600060608486031215612d3d57612d3c61290d565b5b6000612d4b86828701612996565b935050602084013567ffffffffffffffff811115612d6c57612d6b612912565b5b612d7886828701612cf6565b9250506040612d8986828701612960565b9150509250925092565b600080600060608486031215612dac57612dab61290d565b5b600084013567ffffffffffffffff811115612dca57612dc9612912565b5b612dd686828701612cf6565b9350506020612de786828701612996565b9250506040612df886828701612996565b9150509250925092565b6000602082019050612e176000830184612b02565b92915050565b60008060408385031215612e3457612e3361290d565b5b6000612e4285828601612960565b9250506020612e5385828601612960565b9150509250929050565b7f4e487b7100000000000000000000000000000000000000000000000000000000600052602260045260246000fd5b60006002820490506001821680612ea457607f821691505b60208210811415612eb857612eb7612e5d565b5b50919050565b7f45524332303a207472616e7366657220616d6f756e742065786365656473206160008201527f6c6c6f77616e6365000000000000000000000000000000000000000000000000602082015250565b6000612f1a602883612853565b9150612f2582612ebe565b604082019050919050565b60006020820190508181036000830152612f4981612f0d565b9050919050565b7f4163636573732064656e696564203a206d73672e73656e646572206973206e6f60008201527f7420746865206f776e6572206f6620746865206769746875626c696e6b63686160208201527f6c6c656e67650000000000000000000000000000000000000000000000000000604082015250565b6000612fd2604683612853565b9150612fdd82612f50565b606082019050919050565b6000602082019050818103600083015261300181612fc5565b9050919050565b7f4475726174696f6e20737065636966696564206861736e27742070617373656460008201527f2079657400000000000000000000000000000000000000000000000000000000602082015250565b6000613064602483612853565b915061306f82613008565b604082019050919050565b6000602082019050818103600083015261309381613057565b9050919050565b60006040820190506130af6000830185612b02565b6130bc6020830184612a21565b9392505050565b6130cc816129eb565b81146130d757600080fd5b50565b6000815190506130e9816130c3565b92915050565b6000602082840312156131055761310461290d565b5b6000613113848285016130da565b91505092915050565b60008190508160005260206000209050919050565b6000815461313e81612e8c565b6131488186612853565b945060018216600081146131635760018114613175576131a8565b60ff19831686526020860193506131a8565b61317e8561311c565b60005b838110156131a057815481890152600182019150602081019050613181565b808801955050505b50505092915050565b600060608201905081810360008301526131cb8186613131565b90506131da6020830185612b02565b6131e760408301846129f7565b949350505050565b7f4f776e61626c653a2063616c6c6572206973206e6f7420746865206f776e6572600082015250565b6000613225602083612853565b9150613230826131ef565b602082019050919050565b6000602082019050818103600083015261325481613218565b9050919050565b7f426f756e74792068617320616c72656164792062656e6e20636f6e636c75646560008201527f6400000000000000000000000000000000000000000000000000000000000000602082015250565b60006132b7602183612853565b91506132c28261325b565b604082019050919050565b600060208201905081810360008301526132e6816132aa565b9050919050565b7f426f756e74792068617320616c7265616479206265656e207265776172646564600082015250565b6000613323602083612853565b915061332e826132ed565b602082019050919050565b6000602082019050818103600083015261335281613316565b9050919050565b600060808201905081810360008301526133738187613131565b90506133826020830186612b02565b61338f6040830185612b02565b81810360608301526133a181846128a8565b905095945050505050565b7f626f756e747920616d6f756e742073686f756c64206e6f74206265207a65726f600082015250565b60006133e2602083612853565b91506133ed826133ac565b602082019050919050565b60006020820190508181036000830152613411816133d5565b9050919050565b7f4e487b7100000000000000000000000000000000000000000000000000000000600052601160045260246000fd5b600061345282612975565b915061345d83612975565b9250827fffffffffffffffffffffffffffffffffffffffffffffffffffffffffffffffff0382111561349257613491613418565b5b828201905092915050565b7f626f756e747920656e6474696d696e672073686f756c64206e6f74206265206c60008201527f657373207468616e203120687200000000000000000000000000000000000000602082015250565b60006134f9602d83612853565b91506135048261349d565b604082019050919050565b60006020820190508181036000830152613528816134ec565b9050919050565b600081905092915050565b600061354582612848565b61354f818561352f565b935061355f818560208601612864565b80840191505092915050565b7f4000000000000000000000000000000000000000000000000000000000000000600082015250565b60006135a160018361352f565b91506135ac8261356b565b600182019050919050565b60006135c3828561353a565b91506135ce82613594565b91506135da828461353a565b91508190509392505050565b600060a082019050818103600083015261360081886128a8565b905061360f6020830187612b02565b818103604083015261362181866128a8565b90506136306060830185612a21565b61363d6080830184612a21565b9695505050505050565b7f4f776e61626c653a206e6577206f776e657220697320746865207a65726f206160008201527f6464726573730000000000000000000000000000000000000000000000000000602082015250565b60006136a3602683612853565b91506136ae82613647565b604082019050919050565b600060208201905081810360008301526136d281613696565b9050919050565b7f45524332303a20617070726f76652066726f6d20746865207a65726f2061646460008201527f7265737300000000000000000000000000000000000000000000000000000000602082015250565b6000613735602483612853565b9150613740826136d9565b604082019050919050565b6000602082019050818103600083015261376481613728565b9050919050565b7f45524332303a20617070726f766520746f20746865207a65726f20616464726560008201527f7373000000000000000000000000000000000000000000000000000000000000602082015250565b60006137c7602283612853565b91506137d28261376b565b604082019050919050565b600060208201905081810360008301526137f6816137ba565b9050919050565b7f45524332303a207472616e736665722066726f6d20746865207a65726f20616460008201527f6472657373000000000000000000000000000000000000000000000000000000602082015250565b6000613859602583612853565b9150613864826137fd565b604082019050919050565b600060208201905081810360008301526138888161384c565b9050919050565b7f45524332303a207472616e7366657220746f20746865207a65726f206164647260008201527f6573730000000000000000000000000000000000000000000000000000000000602082015250565b60006138eb602383612853565b91506138f68261388f565b604082019050919050565b6000602082019050818103600083015261391a816138de565b9050919050565b7f45524332303a207472616e7366657220616d6f756e742065786365656473206260008201527f616c616e63650000000000000000000000000000000000000000000000000000602082015250565b600061397d602683612853565b915061398882613921565b604082019050919050565b600060208201905081810360008301526139ac81613970565b9050919050565b7f45524332303a206d696e7420746f20746865207a65726f206164647265737300600082015250565b60006139e9601f83612853565b91506139f4826139b3565b602082019050919050565b60006020820190508181036000830152613a18816139dc565b9050919050565b7f45524332303a206275726e2066726f6d20746865207a65726f2061646472657360008201527f7300000000000000000000000000000000000000000000000000000000000000602082015250565b6000613a7b602183612853565b9150613a8682613a1f565b604082019050919050565b60006020820190508181036000830152613aaa81613a6e565b9050919050565b7f45524332303a206275726e20616d6f756e7420657863656564732062616c616e60008201527f6365000000000000000000000000000000000000000000000000000000000000602082015250565b6000613b0d602283612853565b9150613b1882613ab1565b604082019050919050565b60006020820190508181036000830152613b3c81613b00565b9050919050565b6000613b4e82612975565b9150613b5983612975565b925082821015613b6c57613b6b613418565b5b828203905092915050565b60008160601b9050919050565b6000613b8f82613b77565b9050919050565b6000613ba182613b84565b9050919050565b613bb9613bb482612937565b613b96565b82525050565b6000613bcb8284613ba8565b60148201915081905092915050565b7f4e487b7100000000000000000000000000000000000000000000000000000000600052603260045260246000fd5b7f4e487b7100000000000000000000000000000000000000000000000000000000600052601260045260246000fd5b6000613c4382612a9e565b9150613c4e83612a9e565b925082613c5e57613c5d613c09565b5b828204905092915050565b6000613c7482612a9e565b9150613c7f83612a9e565b92508160ff0483118215151615613c9957613c98613418565b5b828202905092915050565b6000613caf82612a9e565b9150613cba83612a9e565b925082821015613ccd57613ccc613418565b5b828203905092915050565b6000613ce382612a9e565b9150613cee83612a9e565b92508260ff03821115613d0457613d03613418565b5b828201905092915050565b6000613d1a82612975565b9150613d2583612975565b9250817fffffffffffffffffffffffffffffffffffffffffffffffffffffffffffffffff0483118215151615613d5e57613d5d613418565b5b828202905092915050565b6000613d7482612975565b91507fffffffffffffffffffffffffffffffffffffffffffffffffffffffffffffffff821415613da757613da6613418565b5b600182019050919050565b6000613dbd82612975565b9150613dc883612975565b925082613dd857613dd7613c09565b5b82820490509291505056fea26469706673582212204cad06b768b60e513e09e5e59967b51b918b5a5ef19bcf5eda81cd0578aab9ee64736f6c634300080a0033",
  "immutableReferences": {},
  "source": "// SPDX-License-Identifier: MIT\n// File: @openzeppelin/contracts/utils/Context.sol\n\n\n// OpenZeppelin Contracts v4.4.0 (utils/Context.sol)\n\npragma solidity ^0.8.0;\n\n/**\n * @dev Provides information about the current execution context, including the\n * sender of the transaction and its data. While these are generally available\n * via msg.sender and msg.data, they should not be accessed in such a direct\n * manner, since when dealing with meta-transactions the account sending and\n * paying for execution may not be the actual sender (as far as an application\n * is concerned).\n *\n * This contract is only required for intermediate, library-like contracts.\n */\nabstract contract Context {\n    function _msgSender() internal view virtual returns (address) {\n        return msg.sender;\n    }\n\n    function _msgData() internal view virtual returns (bytes calldata) {\n        return msg.data;\n    }\n}\n\n// File: @openzeppelin/contracts/access/Ownable.sol\n\n\n// OpenZeppelin Contracts v4.4.0 (access/Ownable.sol)\n\npragma solidity ^0.8.0;\n\n\n/**\n * @dev Contract module which provides a basic access control mechanism, where\n * there is an account (an owner) that can be granted exclusive access to\n * specific functions.\n *\n * By default, the owner account will be the one that deploys the contract. This\n * can later be changed with {transferOwnership}.\n *\n * This module is used through inheritance. It will make available the modifier\n * `onlyOwner`, which can be applied to your functions to restrict their use to\n * the owner.\n */\nabstract contract Ownable is Context {\n    address private _owner;\n\n    event OwnershipTransferred(address indexed previousOwner, address indexed newOwner);\n\n    /**\n     * @dev Initializes the contract setting the deployer as the initial owner.\n     */\n    constructor() {\n        _transferOwnership(_msgSender());\n    }\n\n    /**\n     * @dev Returns the address of the current owner.\n     */\n    function owner() public view virtual returns (address) {\n        return _owner;\n    }\n\n    /**\n     * @dev Throws if called by any account other than the owner.\n     */\n    modifier onlyOwner() {\n        require(owner() == _msgSender(), \"Ownable: caller is not the owner\");\n        _;\n    }\n\n    /**\n     * @dev Leaves the contract without owner. It will not be possible to call\n     * `onlyOwner` functions anymore. Can only be called by the current owner.\n     *\n     * NOTE: Renouncing ownership will leave the contract without an owner,\n     * thereby removing any functionality that is only available to the owner.\n     */\n\n\n    /**\n     * @dev Transfers ownership of the contract to a new account (`newOwner`).\n     * Can only be called by the current owner.\n     */\n    function transferOwnership(address newOwner) public virtual onlyOwner {\n        require(newOwner != address(0), \"Ownable: new owner is the zero address\");\n        _transferOwnership(newOwner);\n    }\n\n    /**\n     * @dev Transfers ownership of the contract to a new account (`newOwner`).\n     * Internal function without access restriction.\n     */\n    function _transferOwnership(address newOwner) internal virtual {\n        address oldOwner = _owner;\n        _owner = newOwner;\n        emit OwnershipTransferred(oldOwner, newOwner);\n    }\n}\n\n// File: @openzeppelin/contracts/token/ERC20/IERC20.sol\n\n\n// OpenZeppelin Contracts v4.4.0 (token/ERC20/IERC20.sol)\n\npragma solidity ^0.8.0;\n\n/**\n * @dev Interface of the ERC20 standard as defined in the EIP.\n */\ninterface IERC20 {\n    /**\n     * @dev Returns the amount of tokens in existence.\n     */\n    function totalSupply() external view returns (uint256);\n\n    /**\n     * @dev Returns the amount of tokens owned by `account`.\n     */\n    function balanceOf(address account) external view returns (uint256);\n\n    /**\n     * @dev Moves `amount` tokens from the caller's account to `recipient`.\n     *\n     * Returns a boolean value indicating whether the operation succeeded.\n     *\n     * Emits a {Transfer} event.\n     */\n    function transfer(address recipient, uint256 amount) external returns (bool);\n\n    /**\n     * @dev Returns the remaining number of tokens that `spender` will be\n     * allowed to spend on behalf of `owner` through {transferFrom}. This is\n     * zero by default.\n     *\n     * This value changes when {approve} or {transferFrom} are called.\n     */\n    function allowance(address owner, address spender) external view returns (uint256);\n\n    /**\n     * @dev Sets `amount` as the allowance of `spender` over the caller's tokens.\n     *\n     * Returns a boolean value indicating whether the operation succeeded.\n     *\n     * IMPORTANT: Beware that changing an allowance with this method brings the risk\n     * that someone may use both the old and the new allowance by unfortunate\n     * transaction ordering. One possible solution to mitigate this race\n     * condition is to first reduce the spender's allowance to 0 and set the\n     * desired value afterwards:\n     * https://github.com/ethereum/EIPs/issues/20#issuecomment-263524729\n     *\n     * Emits an {Approval} event.\n     */\n    function approve(address spender, uint256 amount) external returns (bool);\n\n    /**\n     * @dev Moves `amount` tokens from `sender` to `recipient` using the\n     * allowance mechanism. `amount` is then deducted from the caller's\n     * allowance.\n     *\n     * Returns a boolean value indicating whether the operation succeeded.\n     *\n     * Emits a {Transfer} event.\n     */\n    function transferFrom(\n        address sender,\n        address recipient,\n        uint256 amount\n    ) external returns (bool);\n\n    /**\n     * @dev Emitted when `value` tokens are moved from one account (`from`) to\n     * another (`to`).\n     *\n     * Note that `value` may be zero.\n     */\n    event Transfer(address indexed from, address indexed to, uint256 value);\n\n    /**\n     * @dev Emitted when the allowance of a `spender` for an `owner` is set by\n     * a call to {approve}. `value` is the new allowance.\n     */\n    event Approval(address indexed owner, address indexed spender, uint256 value);\n}\n\n// File: @openzeppelin/contracts/token/ERC20/extensions/IERC20Metadata.sol\n\n\n// OpenZeppelin Contracts v4.4.0 (token/ERC20/extensions/IERC20Metadata.sol)\n\npragma solidity ^0.8.0;\n\n\n/**\n * @dev Interface for the optional metadata functions from the ERC20 standard.\n *\n * _Available since v4.1._\n */\ninterface IERC20Metadata is IERC20 {\n    /**\n     * @dev Returns the name of the token.\n     */\n    function name() external view returns (string memory);\n\n    /**\n     * @dev Returns the symbol of the token.\n     */\n    function symbol() external view returns (string memory);\n\n    /**\n     * @dev Returns the decimals places of the token.\n     */\n    function decimals() external view returns (uint8);\n}\n\n// File: @openzeppelin/contracts/token/ERC20/ERC20.sol\n\n\n// OpenZeppelin Contracts v4.4.0 (token/ERC20/ERC20.sol)\n\npragma solidity ^0.8.0;\n\n\n\n\n/**\n * @dev Implementation of the {IERC20} interface.\n *\n * This implementation is agnostic to the way tokens are created. This means\n * that a supply mechanism has to be added in a derived contract using {_mint}.\n * For a generic mechanism see {ERC20PresetMinterPauser}.\n *\n * TIP: For a detailed writeup see our guide\n * https://forum.zeppelin.solutions/t/how-to-implement-erc20-supply-mechanisms/226[How\n * to implement supply mechanisms].\n *\n * We have followed general OpenZeppelin Contracts guidelines: functions revert\n * instead returning `false` on failure. This behavior is nonetheless\n * conventional and does not conflict with the expectations of ERC20\n * applications.\n *\n * Additionally, an {Approval} event is emitted on calls to {transferFrom}.\n * This allows applications to reconstruct the allowance for all accounts just\n * by listening to said events. Other implementations of the EIP may not emit\n * these events, as it isn't required by the specification.\n *\n * Finally, the non-standard {decreaseAllowance} and {increaseAllowance}\n * functions have been added to mitigate the well-known issues around setting\n * allowances. See {IERC20-approve}.\n */\ncontract ERC20 is Context, IERC20, IERC20Metadata {\n    mapping(address => uint256) private _balances;\n\n    mapping(address => mapping(address => uint256)) private _allowances;\n\n    uint256 private _totalSupply;\n\n    string private _name;\n    string private _symbol;\n\n    /**\n     * @dev Sets the values for {name} and {symbol}.\n     *\n     * The default value of {decimals} is 18. To select a different value for\n     * {decimals} you should overload it.\n     *\n     * All two of these values are immutable: they can only be set once during\n     * construction.\n     */\n    constructor(string memory name_, string memory symbol_) {\n        _name = name_;\n        _symbol = symbol_;\n    }\n\n    /**\n     * @dev Returns the name of the token.\n     */\n    function name() public view virtual override returns (string memory) {\n        return _name;\n    }\n\n    /**\n     * @dev Returns the symbol of the token, usually a shorter version of the\n     * name.\n     */\n    function symbol() public view virtual override returns (string memory) {\n        return _symbol;\n    }\n\n    /**\n     * @dev Returns the number of decimals used to get its user representation.\n     * For example, if `decimals` equals `2`, a balance of `505` tokens should\n     * be displayed to a user as `5.05` (`505 / 10 ** 2`).\n     *\n     * Tokens usually opt for a value of 18, imitating the relationship between\n     * Ether and Wei. This is the value {ERC20} uses, unless this function is\n     * overridden;\n     *\n     * NOTE: This information is only used for _display_ purposes: it in\n     * no way affects any of the arithmetic of the contract, including\n     * {IERC20-balanceOf} and {IERC20-transfer}.\n     */\n    function decimals() public view virtual override returns (uint8) {\n        return 18;\n    }\n\n    /**\n     * @dev See {IERC20-totalSupply}.\n     */\n    function totalSupply() public view virtual override returns (uint256) {\n        return _totalSupply;\n    }\n\n    /**\n     * @dev See {IERC20-balanceOf}.\n     */\n    function balanceOf(address account) public view virtual override returns (uint256) {\n        return _balances[account];\n    }\n\n    /**\n     * @dev See {IERC20-transfer}.\n     *\n     * Requirements:\n     *\n     * - `recipient` cannot be the zero address.\n     * - the caller must have a balance of at least `amount`.\n     */\n    function transfer(address recipient, uint256 amount) public virtual override returns (bool) {\n        _transfer(_msgSender(), recipient, amount);\n        return true;\n    }\n\n    /**\n     * @dev See {IERC20-allowance}.\n     */\n    function allowance(address owner, address spender) public view virtual override returns (uint256) {\n        return _allowances[owner][spender];\n    }\n\n    /**\n     * @dev See {IERC20-approve}.\n     *\n     * Requirements:\n     *\n     * - `spender` cannot be the zero address.\n     */\n    function approve(address spender, uint256 amount) public virtual override returns (bool) {\n        _approve(_msgSender(), spender, amount);\n        return true;\n    }\n\n    /**\n     * @dev See {IERC20-transferFrom}.\n     *\n     * Emits an {Approval} event indicating the updated allowance. This is not\n     * required by the EIP. See the note at the beginning of {ERC20}.\n     *\n     * Requirements:\n     *\n     * - `sender` and `recipient` cannot be the zero address.\n     * - `sender` must have a balance of at least `amount`.\n     * - the caller must have allowance for ``sender``'s tokens of at least\n     * `amount`.\n     */\n    function transferFrom(\n        address sender,\n        address recipient,\n        uint256 amount\n    ) public virtual override returns (bool) {\n        _transfer(sender, recipient, amount);\n\n        uint256 currentAllowance = _allowances[sender][_msgSender()];\n        require(currentAllowance >= amount, \"ERC20: transfer amount exceeds allowance\");\n        unchecked {\n            _approve(sender, _msgSender(), currentAllowance - amount);\n        }\n\n        return true;\n    }\n\n    /**\n     * @dev Atomically increases the allowance granted to `spender` by the caller.\n     *\n     * This is an alternative to {approve} that can be used as a mitigation for\n     * problems described in {IERC20-approve}.\n     *\n     * Emits an {Approval} event indicating the updated allowance.\n     *\n     * Requirements:\n     *\n     * - `spender` cannot be the zero address.\n     */\n  \n\n    /**\n     * @dev Atomically decreases the allowance granted to `spender` by the caller.\n     *\n     * This is an alternative to {approve} that can be used as a mitigation for\n     * problems described in {IERC20-approve}.\n     *\n     * Emits an {Approval} event indicating the updated allowance.\n     *\n     * Requirements:\n     *\n     * - `spender` cannot be the zero address.\n     * - `spender` must have allowance for the caller of at least\n     * `subtractedValue`.\n     */\n\n\n    /**\n     * @dev Moves `amount` of tokens from `sender` to `recipient`.\n     *\n     * This internal function is equivalent to {transfer}, and can be used to\n     * e.g. implement automatic token fees, slashing mechanisms, etc.\n     *\n     * Emits a {Transfer} event.\n     *\n     * Requirements:\n     *\n     * - `sender` cannot be the zero address.\n     * - `recipient` cannot be the zero address.\n     * - `sender` must have a balance of at least `amount`.\n     */\n    function _transfer(\n        address sender,\n        address recipient,\n        uint256 amount\n    ) internal virtual {\n        require(sender != address(0), \"ERC20: transfer from the zero address\");\n        require(recipient != address(0), \"ERC20: transfer to the zero address\");\n\n        _beforeTokenTransfer(sender, recipient, amount);\n\n        uint256 senderBalance = _balances[sender];\n        require(senderBalance >= amount, \"ERC20: transfer amount exceeds balance\");\n        unchecked {\n            _balances[sender] = senderBalance - amount;\n        }\n        _balances[recipient] += amount;\n\n        emit Transfer(sender, recipient, amount);\n\n        _afterTokenTransfer(sender, recipient, amount);\n    }\n\n    /** @dev Creates `amount` tokens and assigns them to `account`, increasing\n     * the total supply.\n     *\n     * Emits a {Transfer} event with `from` set to the zero address.\n     *\n     * Requirements:\n     *\n     * - `account` cannot be the zero address.\n     */\n    function _mint(address account, uint256 amount) internal virtual {\n        require(account != address(0), \"ERC20: mint to the zero address\");\n\n        _beforeTokenTransfer(address(0), account, amount);\n\n        _totalSupply += amount;\n        _balances[account] += amount;\n        emit Transfer(address(0), account, amount);\n\n        _afterTokenTransfer(address(0), account, amount);\n    }\n\n    /**\n     * @dev Destroys `amount` tokens from `account`, reducing the\n     * total supply.\n     *\n     * Emits a {Transfer} event with `to` set to the zero address.\n     *\n     * Requirements:\n     *\n     * - `account` cannot be the zero address.\n     * - `account` must have at least `amount` tokens.\n     */\n    function _burn(address account, uint256 amount) internal virtual {\n        require(account != address(0), \"ERC20: burn from the zero address\");\n\n        _beforeTokenTransfer(account, address(0), amount);\n\n        uint256 accountBalance = _balances[account];\n        require(accountBalance >= amount, \"ERC20: burn amount exceeds balance\");\n        unchecked {\n            _balances[account] = accountBalance - amount;\n        }\n        _totalSupply -= amount;\n\n        emit Transfer(account, address(0), amount);\n\n        _afterTokenTransfer(account, address(0), amount);\n    }\n\n    /**\n     * @dev Sets `amount` as the allowance of `spender` over the `owner` s tokens.\n     *\n     * This internal function is equivalent to `approve`, and can be used to\n     * e.g. set automatic allowances for certain subsystems, etc.\n     *\n     * Emits an {Approval} event.\n     *\n     * Requirements:\n     *\n     * - `owner` cannot be the zero address.\n     * - `spender` cannot be the zero address.\n     */\n    function _approve(\n        address owner,\n        address spender,\n        uint256 amount\n    ) internal virtual {\n        require(owner != address(0), \"ERC20: approve from the zero address\");\n        require(spender != address(0), \"ERC20: approve to the zero address\");\n\n        _allowances[owner][spender] = amount;\n        emit Approval(owner, spender, amount);\n    }\n\n    /**\n     * @dev Hook that is called before any transfer of tokens. This includes\n     * minting and burning.\n     *\n     * Calling conditions:\n     *\n     * - when `from` and `to` are both non-zero, `amount` of ``from``'s tokens\n     * will be transferred to `to`.\n     * - when `from` is zero, `amount` tokens will be minted for `to`.\n     * - when `to` is zero, `amount` of ``from``'s tokens will be burned.\n     * - `from` and `to` are never both zero.\n     *\n     * To learn more about hooks, head to xref:ROOT:extending-contracts.adoc#using-hooks[Using Hooks].\n     */\n    function _beforeTokenTransfer(\n        address from,\n        address to,\n        uint256 amount\n    ) internal virtual {}\n\n    /**\n     * @dev Hook that is called after any transfer of tokens. This includes\n     * minting and burning.\n     *\n     * Calling conditions:\n     *\n     * - when `from` and `to` are both non-zero, `amount` of ``from``'s tokens\n     * has been transferred to `to`.\n     * - when `from` is zero, `amount` tokens have been minted for `to`.\n     * - when `to` is zero, `amount` of ``from``'s tokens have been burned.\n     * - `from` and `to` are never both zero.\n     *\n     * To learn more about hooks, head to xref:ROOT:extending-contracts.adoc#using-hooks[Using Hooks].\n     */\n    function _afterTokenTransfer(\n        address from,\n        address to,\n        uint256 amount\n    ) internal virtual {}\n}\n\n// File: @openzeppelin/contracts/token/ERC20/extensions/ERC20Burnable.sol\n\n\n// OpenZeppelin Contracts v4.4.0 (token/ERC20/extensions/ERC20Burnable.sol)\n\npragma solidity ^0.8.0;\n\n\n\n/**\n * @dev Extension of {ERC20} that allows token holders to destroy both their own\n * tokens and those that they have an allowance for, in a way that can be\n * recognized off-chain (via event analysis).\n */\nabstract contract ERC20Burnable is Context, ERC20 {\n    /**\n     * @dev Destroys `amount` tokens from the caller.\n     *\n     * See {ERC20-_burn}.\n     */\n    function burn(uint256 amount) public virtual {\n        _burn(_msgSender(), amount);\n    }\n\n    /**\n     * @dev Destroys `amount` tokens from `account`, deducting from the caller's\n     * allowance.\n     *\n     * See {ERC20-_burn} and {ERC20-allowance}.\n     *\n     * Requirements:\n     *\n     * - the caller must have allowance for ``accounts``'s tokens of at least\n     * `amount`.\n     */\n\n}\n\n// File: contract-e8b820df27.sol\n\n\npragma solidity ^0.8.4;\n\ncontract BountyBadge is ERC20, ERC20Burnable, Ownable {\n\n    mapping (address => uint256) public addressToChallengeCount;\n    event ChallengeAdded(string challengeId,address challengeOwner,string githubChallengeLink,uint256 bountyAmount,uint256 endTiming);\n    event ChallengeConcluded(string challengeId,address challengeOwner,address challengeWinner,string githubSolutionLink);\n    event ChallengeExpired(string challengeId,address challengeOwner,bool isAlive);\n    struct Challenge {\n        string challengeId;\n        uint256 challengecount;\n        string githubChallengeLink;\n        uint256 endTiming;\n        uint256 bountyAmount;\n        address challengeOwner;\n        address challengeWinner;\n        string githubSolutionLink;\n        bool rewarded;\n        bool isAlive;\n\n    }\n    mapping(address=> mapping(uint256=>Challenge)) public addressToChallenges;\n\n    constructor() ERC20(\"Bounty\", \"BTY\") {\n        _mint(msg.sender, 10000000 * 10 ** decimals());\n    }\n\n    function mint(address to, uint256 amount) public onlyOwner {\n        _mint(to, amount);\n    }\n    function uint2str(uint _i) private pure returns (string memory _uintAsString) {\n        if (_i == 0) {\n            return \"0\";\n        }\n        uint j = _i;\n        uint len;\n        while (j != 0) {\n            len++;\n            j /= 10;\n        }\n        bytes memory bstr = new bytes(len);\n        uint k = len;\n        while (_i != 0) {\n            k = k-1;\n            uint8 temp = (48 + uint8(_i - _i / 10 * 10));\n            bytes1 b1 = bytes1(temp);\n            bstr[k] = b1;\n            _i /= 10;\n        }\n        return string(bstr);\n    }\n    function _addressToString(address addr) private pure returns (string memory){\n        bytes memory addressBytes = abi.encodePacked(addr);\n        bytes memory stringBytes = new bytes(42);\n        stringBytes[0]=\"0\";\n        stringBytes[1]=\"x\";\n        for (uint i=0;i<20;i++){\n            uint8 leftValue = uint8(addressBytes[i])/16;\n            uint8 rightValue = uint8(addressBytes[i])-16 *leftValue;\n            bytes1 leftChar = leftValue < 10 ? bytes1(leftValue+48) : bytes1(leftValue+87);\n            bytes1 rightChar = rightValue < 10 ? bytes1(rightValue+48) : bytes1(rightValue+87);\n            stringBytes[2*i+3] = rightChar;\n            stringBytes[2*i+2] = leftChar;\n        }\n        return string(stringBytes);\n    }\n    function Addbounty(string memory githubChallengeLink,uint256 bountyAmount,uint256 endTiming) public returns(bool){\n        require(bountyAmount > 0,\"bounty amount should not be zero\");\n        require(endTiming >(block.timestamp + 3600 ),\"bounty endtiming should not be less than 1 hr\"); \n        addressToChallengeCount[msg.sender] +=1;\n        uint256 challengeCount = addressToChallengeCount[msg.sender];\n        string memory challengeId = string(abi.encodePacked(_addressToString(msg.sender),\"@\",uint2str(challengeCount)));\n        addressToChallenges[msg.sender][addressToChallengeCount[msg.sender]] = Challenge(challengeId,addressToChallengeCount[msg.sender],githubChallengeLink,endTiming,bountyAmount,msg.sender,address(0),\"\",false,true);\n        transfer(address(this),bountyAmount);\n        emit ChallengeAdded(challengeId,msg.sender,githubChallengeLink,bountyAmount,endTiming);\n        return true;\n    } \n\n    function ConcludeBounty(uint256 challengeCount,string memory githubSolutionLink,address winner) public returns(bool) {\n         require(addressToChallenges[msg.sender][challengeCount].challengeOwner == msg.sender,\"Access denied : msg.sender is not the owner of the githublinkchallenge\");\n         require(addressToChallenges[msg.sender][challengeCount].isAlive == true,\"Bounty has already benn concluded\");\n         require(addressToChallenges[msg.sender][challengeCount].rewarded == false,\"Bounty has already been rewarded\");\n         addressToChallenges[msg.sender][challengeCount].isAlive = false;\n         addressToChallenges[msg.sender][challengeCount].challengeWinner = winner;\n         addressToChallenges[msg.sender][challengeCount].githubSolutionLink = githubSolutionLink;\n         addressToChallenges[msg.sender][challengeCount].rewarded = true;\n         uint256 bountyamount= addressToChallenges[msg.sender][challengeCount].bountyAmount;\n         this.transfer(winner,bountyamount);\n         emit ChallengeConcluded(addressToChallenges[msg.sender][challengeCount].challengeId,addressToChallenges[msg.sender][challengeCount].challengeOwner,winner,githubSolutionLink);\n         return true;\n    }\n\n    function expiredBounty(uint256 challengeCount) public{\n        require(addressToChallenges[msg.sender][challengeCount].challengeOwner == msg.sender,\"Access denied : msg.sender is not the owner of the githublinkchallenge\");\n        require(addressToChallenges[msg.sender][challengeCount].endTiming < block.timestamp,\"Duration specified hasn't passed yet\");\n        addressToChallenges[msg.sender][challengeCount].isAlive = false;\n        addressToChallenges[msg.sender][challengeCount].challengeWinner = address(0);\n        addressToChallenges[msg.sender][challengeCount].githubSolutionLink = \"Challenge Expired\";\n        addressToChallenges[msg.sender][challengeCount].rewarded = true;\n        uint256 bountyamount= addressToChallenges[msg.sender][challengeCount].bountyAmount;\n        this.transfer(msg.sender,bountyamount);\n        emit ChallengeExpired(addressToChallenges[msg.sender][challengeCount].challengeId,msg.sender,addressToChallenges[msg.sender][challengeCount].isAlive);\n    }\n}\n",
  "sourcePath": "C:\\Users\\91908\\mockweb3\\contracts\\BountyBadge.sol",
  "compiler": {
    "name": "solc",
    "version": "0.8.10+commit.fc410830.Emscripten.clang"
  },
  "schemaVersion": "3.4.3",
  "updatedAt": "2021-12-08T06:15:45.038Z",
  "devdoc": {
    "kind": "dev",
    "methods": {
      "allowance(address,address)": {
        "details": "See {IERC20-allowance}."
      },
      "approve(address,uint256)": {
        "details": "See {IERC20-approve}. Requirements: - `spender` cannot be the zero address."
      },
      "balanceOf(address)": {
        "details": "See {IERC20-balanceOf}."
      },
      "burn(uint256)": {
        "details": "Destroys `amount` tokens from the caller. See {ERC20-_burn}."
      },
      "decimals()": {
        "details": "Returns the number of decimals used to get its user representation. For example, if `decimals` equals `2`, a balance of `505` tokens should be displayed to a user as `5.05` (`505 / 10 ** 2`). Tokens usually opt for a value of 18, imitating the relationship between Ether and Wei. This is the value {ERC20} uses, unless this function is overridden; NOTE: This information is only used for _display_ purposes: it in no way affects any of the arithmetic of the contract, including {IERC20-balanceOf} and {IERC20-transfer}."
      },
      "name()": {
        "details": "Returns the name of the token."
      },
      "owner()": {
        "details": "Returns the address of the current owner."
      },
      "symbol()": {
        "details": "Returns the symbol of the token, usually a shorter version of the name."
      },
      "totalSupply()": {
        "details": "See {IERC20-totalSupply}."
      },
      "transfer(address,uint256)": {
        "details": "See {IERC20-transfer}. Requirements: - `recipient` cannot be the zero address. - the caller must have a balance of at least `amount`."
      },
      "transferFrom(address,address,uint256)": {
        "details": "See {IERC20-transferFrom}. Emits an {Approval} event indicating the updated allowance. This is not required by the EIP. See the note at the beginning of {ERC20}. Requirements: - `sender` and `recipient` cannot be the zero address. - `sender` must have a balance of at least `amount`. - the caller must have allowance for ``sender``'s tokens of at least `amount`."
      },
      "transferOwnership(address)": {
        "details": "Transfers ownership of the contract to a new account (`newOwner`). Can only be called by the current owner."
      }
    },
    "version": 1
  },
  "userdoc": {
    "kind": "user",
    "methods": {},
    "version": 1
  }
}